:020000040800F2
:1000000000280020711B0008011B0008071B0008C6
:100010000D1B0008131B0008191B0008000000003E
:100020000000000000000000000000001F1B00088E
:100030002B1B000800000000371B0008431B0008B2
:10004000B91B0008B91B0008B91B0008B91B000840
:10005000B91B0008B91B0008B91B0008B91B000830
:10006000B91B0008B91B0008B91B0008B91B000820
:10007000B91B0008B91B0008B91B0008B91B000810
:10008000B91B0008B91B0008B91B0008B91B000800
:10009000B91B0008B91B0008B91B0008B91B0008F0
:1000A000B91B0008B91B0008B91B0008B91B0008E0
:1000B000511B0008B91B000800000000B91B000814
:1000C000B91B00080000000000000000B91B000878
:1000D00000000000B91B0008B91B00080000000068
:1000E000B91B0008B91B0008B91B0008000000007C
:1000F0000000000000000000000000000000000000
:0C01000000000000000000005FF808F1A3
:10010C0010B5054C237833B9044B13B10448AFF345
:10011C0000800123237010BD6C0000200000000043
:10012C00E831000808B5034B1BB103490348AFF392
:10013C00008008BD0000000070000020E8310008BD
:10014C0080B483B000AF7860094A7B6852F82330E2
:10015C00012B06D1064A7B68002142F823100123AB
:10016C0000E0002318460C37BD4680BC704700BF2A
:10017C008800002080B483B000AF7860044A7B68AC
:10018C00012142F8231000BF0C37BD4680BC7047DC
:10019C008800002080B582B000AF00237B6073E044
:1001AC003D4A7B6852F823203C497B6841F8232068
:1001BC003B4A7B6852F8232037497B6841F823205F
:1001CC00384A7B6852F823309BB21946364801F006
:1001DC00D9FF03461946324A7B6842F823102E4A4F
:1001EC007B6852F823202E497B6851F823309A42C1
:1001FC0047D1294A7B6852F8232028497B6851F85B
:10020C0023309A423DD1254A7B6852F82320274956
:10021C007B6851F823309A4216D0204A7B6852F8FA
:10022C00232022497B6841F82320204A7B6852F81E
:10023C002330002B25D11E4A7B68C82142F823109D
:10024C007868FFF797FF1CE0194A7B6852F8233057
:10025C005A1E17497B6841F82320154A7B6852F8CF
:10026C002330002B0DD1124A7B68C82142F8231091
:10027C000E4A7B6852F82330002B02D17868FFF7C6
:10028C0079FF7B6801337B607B68022B88DD00BFC4
:10029C0000BF0837BD4680BD0C00002018000020B0
:1002AC000000002030000020000801402400002045
:1002BC003C00002080B500AF002240210D4801F029
:1002CC0078FF002280210B4801F073FF00220421EB
:1002DC00084801F06EFF00220821064801F069FF72
:1002EC000221044801F07DFF1021024801F079FF42
:1002FC0000BF80BD0008014080B500AF0022402146
:10030C000D4801F056FF002210210B4801F051FF5F
:10031C0000220421084801F04CFF0022022106486B
:10032C0001F047FF0821044801F05BFF80210248DF
:10033C0001F057FF00BF80BD0008014080B500AF41
:10034C00002280210D4801F034FF002210210B48BF
:10035C0001F02FFF00220821084801F02AFF00229B
:10036C000221064801F025FF0421044801F039FF61
:10037C004021024801F035FF00BF80BD000801405C
:10038C0080B500AF012202210E4801F012FF0022BD
:10039C0004210C4801F00DFF00220821094801F04E
:1003AC0008FF00221021074801F003FF0022402122
:1003BC00044801F0FEFE01228021024801F0F9FE02
:1003CC0000BF80BD0008014080B500AF01220221B2
:1003DC000E4801F0EEFE002204210C4801F0E9FE6B
:1003EC0000220821094801F0E4FE002210210748F0
:1003FC0001F0DFFE01224021044801F0DAFE002268
:10040C008021024801F0D5FE00BF80BD00080140EC
:10041C0080B500AF002202210E4801F0CAFE002276
:10042C0004210C4801F0C5FE01220821094801F005
:10043C00C0FE01221021074801F0BBFE0022402122
:10044C00044801F0B6FE00228021024801F0B1FE02
:10045C0000BF80BD0008014080B500AF0022022122
:10046C000E4801F0A6FE012204210C4801F0A1FE69
:10047C0000220821094801F09CFE012210210748A6
:10048C0001F097FE00224021044801F092FE002268
:10049C008021024801F08DFE00BF80BD00080140A4
:1004AC0080B582B000AF78607B68092B00F2808148
:1004BC0001A252F823F000BFED0400083505000836
:1004CC007D050008C50500080D0600085506000846
:1004DC009D060008E50600082D07000875070008B2
:1004EC0000220121B44801F064FE00220221B2482E
:1004FC0001F05FFE00220421AF4801F05AFE0022F9
:10050C000821AD4801F055FE00221021AA4801F047
:10051C0050FE00222021A84801F04BFE0122402170
:10052C00A54801F046FE43E101220121A24801F059
:10053C0040FE00220221A04801F03BFE00220421D3
:10054C009D4801F036FE012208219B4801F031FE46
:10055C0001221021984801F02CFE012220219648FE
:10056C0001F027FE01224021934801F022FE1FE1F9
:10057C0000220121904801F01CFE002202218E482D
:10058C0001F017FE012204218B4801F012FE00221B
:10059C000821894801F00DFE00221021864801F047
:1005AC0008FE01222021844801F003FE0022402194
:1005BC00814801F0FEFDFBE0002201217E4801F0A4
:1005CC00F8FD002202217C4801F0F3FD00220421F9
:1005DC00794801F0EEFD00220821774801F0E9FD91
:1005EC0001221021744801F0E4FD012220217248FF
:1005FC0001F0DFFD002240216F4801F0DAFDD7E069
:10060C00012201216C4801F0D4FD002202216A482C
:10061C0001F0CFFD00220421674801F0CAFD012240
:10062C000821654801F0C5FD01221021624801F046
:10063C00C0FD00222021604801F0BBFD00224021BA
:10064C005D4801F0B6FDB3E0002201215A4801F0EB
:10065C00B0FD01220221584801F0ABFD002204211B
:10066C00554801F0A6FD00220821534801F0A1FDD8
:10067C0001221021504801F09CFD002220214E48FF
:10068C0001F097FD002240214B4801F092FD8FE0D4
:10069C0000220121484801F08CFD0122022146482C
:1006AC0001F087FD00220421434801F082FD002265
:1006BC001021414801F07DFD002208213E4801F047
:1006CC0078FD002220213C4801F073FD00224021DE
:1006DC00394801F06EFD6BE000220121364801F033
:1006EC0068FD00220221344801F063FD0022042140
:1006FC00314801F05EFD012208212F4801F059FD1F
:10070C00012210212C4801F054FD012220212A48FD
:10071C0001F04FFD01224021274801F04AFD47E03E
:10072C0000220121244801F044FD0022022122482C
:10073C0001F03FFD002204211F4801F03AFD002288
:10074C0008211D4801F035FD002210211A4801F046
:10075C0030FD00222021184801F02BFD0022402101
:10076C00154801F026FD23E000220121124801F07A
:10077C0020FD00220221104801F01BFD0022042163
:10078C000D4801F016FD002208210B4801F011FD67
:10079C0001221021084801F00CFD002220210648FE
:1007AC0001F007FD00224021034801F002FD00BFCB
:1007BC0000BF0837BD4680BD000C014080B582B03B
:1007CC0000AF78607B68092B00F2BC8101A252F863
:1007DC0023F000BF090800085D080008B1080008F4
:1007EC000509000859090008AD090008010A0008AC
:1007FC00550A0008A90A0008FD0A000800228021F9
:10080C00D24801F0D6FC00224FF48071CF4801F0A1
:10081C00D0FC00224FF40071CC4801F0CAFC00223D
:10082C004FF48061C94801F0C4FC00224FF4006110
:10083C00C64801F0BEFC00224FF48051C34801F0C1
:10084C00B8FC01224FF40051C04801F0B2FC79E130
:10085C0001228021BD4801F0ACFC00224FF48071D4
:10086C00BA4801F0A6FC00224FF40071B74801F021
:10087C00A0FC01224FF48061B44801F09AFC0122E3
:10088C004FF40061B14801F094FC01224FF4805107
:10089C00AE4801F08EFC01224FF40051AB4801F040
:1008AC0088FC4FE100228021A84801F082FC002244
:1008BC004FF48071A54801F07CFC01224FF40071CB
:1008CC00A24801F076FC00224FF480619F4801F0B1
:1008DC0070FC00224FF400619C4801F06AFC01227C
:1008EC004FF48051994801F064FC00224FF4005100
:1008FC00964801F05EFC25E100228021934801F02E
:10090C0058FC00224FF48071904801F052FC0022F8
:10091C004FF400718D4801F04CFC00224FF48061C3
:10092C008A4801F046FC01224FF40061874801F02F
:10093C0040FC01224FF48051844801F03AFC002223
:10094C004FF40051814801F034FCFBE0012280217E
:10095C007E4801F02EFC00224FF480717B4801F0A0
:10096C0028FC00224FF40071784801F022FC01228F
:10097C004FF48061754801F01CFC01224FF40061BA
:10098C00724801F016FC00224FF480516F4801F0C0
:10099C0010FC00224FF400516C4801F00AFCD1E02D
:1009AC0000228021694801F004FC01224FF480717F
:1009BC00664801F0FEFB00224FF40071634801F021
:1009CC00F8FB00224FF48061604801F0F2FB012239
:1009DC004FF400615D4801F0ECFB00224FF48051B4
:1009EC005A4801F0E6FB00224FF40051574801F041
:1009FC00E0FBA7E000228021544801F0DAFB012241
:100A0C004FF48071514801F0D4FB00224FF4007177
:100A1C004E4801F0CEFB00224FF480614B4801F0B0
:100A2C00C8FB00224FF40061484801F0C2FB0022D1
:100A3C004FF48051454801F0BCFB00224FF40051AB
:100A4C00424801F0B6FB7DE0002280213F4801F0D6
:100A5C00B0FB00224FF480713C4801F0AAFB00224D
:100A6C004FF40071394801F0A4FB01224FF480616E
:100A7C00364801F09EFB01224FF40061334801F02F
:100A8C0098FB01224FF48051304801F092FB012277
:100A9C004FF400512D4801F08CFB53E000228021D3
:100AAC002A4801F086FB00224FF48071274801F0A0
:100ABC0080FB00224FF40071244801F07AFB0022E5
:100ACC004FF48061214801F074FB00224FF4006167
:100ADC001E4801F06EFB00224FF480511B4801F0C0
:100AEC0068FB00224FF40051184801F062FB29E02A
:100AFC0000228021154801F05CFB00224FF480712C
:100B0C00124801F056FB00224FF400710F4801F01F
:100B1C0050FB00224FF480610C4801F04AFB01228B
:100B2C004FF40061094801F044FB00224FF480515E
:100B3C00064801F03EFB00224FF40051034801F03F
:100B4C0038FB00BF00BF0837BD4680BD000C01401C
:100B5C0080B582B000AF78607B68002B03D07B68D7
:100B6C00012B19D031E000224FF48071194801F0AB
:100B7C0020FB01224FF40071164801F01AFB0022F1
:100B8C004FF48061134801F014FB01224FF4006113
:100B9C00104801F00EFB18E001224FF480710D4853
:100BAC0001F007FB00224FF400710A4801F001FB31
:100BBC0001224FF48061074801F0FBFA00224FF448
:100BCC000061044801F0F5FA00BF00BF0837BD46CC
:100BDC0080BD00BF0008014080B400AF274B1B68EC
:100BEC00274A82FB03129210DB17D31A254A136093
:100BFC00224B1968224B83FB01239A10CB17D21A74
:100C0C0013469B0013445B00CA1A1E4B5A601E4BC2
:100C1C001B681B4A82FB03129210DB17D31A194A6A
:100C2C009360194B1968164B83FB01239A10CB1751
:100C3C00D21A13469B0013445B00CA1A114BDA609C
:100C4C00124B1B680E4A82FB03129210DB17D31A4D
:100C5C000C4A13610D4B1968094B83FB01239A1045
:100C6C00CB17D21A13469B0013445B00CA1A054BD0
:100C7C005A6100BFBD4680BC704700BF50000020C9
:100C8C0067666666A800002058000020540000200B
:100C9C0080B483B000AF00237B6081E07B680133BC
:100CAC00444A52F82330002B14DA424A7B6852F83B
:100CBC002330002B0EDD7B6801333E4A092142F8BC
:100CCC0023103C4A7B6852F823305A1E39497B6802
:100CDC0041F82320374A7B6852F82330002B5CD133
:100CEC007B680133334A52F82330002B55D17B6893
:100CFC00002B19D1304B1B68304A82FB0312921027
:100D0C00DB17D31A2B4A13602B4B19682B4B83FB25
:100D1C0001239A10CB17D21A13469B0013445B0085
:100D2C00CA1A244B5A6038E07B68022B19D1244B29
:100D3C001B68224A82FB03129210DB17D31A1D4A3E
:100D4C0093601F4B19681D4B83FB01239A10CB1723
:100D5C00D21A13469B0013445B00CA1A154BDA6077
:100D6C001BE07B68042B18D1164B1B68134A82FBC3
:100D7C0003129210DB17D31A0E4A1361114B196828
:100D8C000E4B83FB01239A10CB17D21A13469B00F0
:100D9C0013445B00CA1A074B5A617B6802337B60B1
:100DAC007B68052B7FF77AAF00BF00BF0C37BD46C1
:100DBC0080BC7047A8000020500000206766666663
:100DCC00580000205400002080B500AF284B1B6851
:100DDC00022B29D0022B49DC002B02D0012B0AD08C
:100DEC0044E0FFF755FF4FF4FA7000F0C3FC204BC2
:100DFC0001221A603AE00020FFF7AAFE1D4B1B6986
:100E0C001846FFF74DFB1B4B1B681846FFF7D6FC2B
:100E1C00194B1B68012B26D1154B02221A604FF47B
:100E2C00FA7000F0A7FC1EE00120FFF791FE114BB9
:100E3C005B691846FFF734FB0E4B5B681846FFF7EF
:100E4C00BDFC0D4B1B68012B0FD10A4B5B68013BA2
:100E5C00084A5360074B5B69013B064A5361044BDC
:100E6C0000221A6001E000BF00E000BF00BF80BD9F
:100E7C0094000020A8000020C000002080B500AF26
:100E8C00284B1B68022B29D0022B49DC002B02D0EB
:100E9C00012B0AD044E0FFF7FBFE4FF4FA7000F090
:100EAC0069FC204B01221A603AE00020FFF750FE4B
:100EBC001D4B9B681846FFF7F3FA1B4B1B68184633
:100ECC00FFF77CFC194B1B68012B26D1154B02221A
:100EDC001A604FF4FA7000F04DFC1EE00120FFF791
:100EEC0037FE114BDB681846FFF7DAFA0E4B5B68DE
:100EFC001846FFF763FC0D4B1B68012B0FD10A4BF7
:100F0C005B68013B084A5360074BDB68013B064AB0
:100F1C00D360044B00221A6001E000BF00E000BF68
:100F2C0000BF80BD94000020A8000020C00000205D
:100F3C0080B500AF284B1B68022B29D0022B49DC53
:100F4C00002B02D0012B0AD044E0FFF7A1FE4FF496
:100F5C00FA7000F00FFC204B01221A603AE00020DE
:100F6C00FFF7F6FD1D4B1B681846FFF799FA1B4B54
:100F7C001B691846FFF722FC194B1B68012B26D165
:100F8C00154B02221A604FF4FA7000F0F3FB1EE0CE
:100F9C000120FFF7DDFD114B5B681846FFF780FA67
:100FAC000E4B5B691846FFF709FC0D4B1B68012BB8
:100FBC000FD10A4B5B68013B084A5360074B5B69D6
:100FCC00013B064A5361044B00221A6001E000BF4A
:100FDC0000E000BF00BF80BD94000020A8000020EE
:100FEC00C000002080B500AF284B1B68022B29D015
:100FFC00022B49DC002B02D0012B0AD044E0FFF776
:10100C0047FE4FF4FA7000F0B5FB204B01221A603A
:10101C003AE00020FFF79CFD1D4B1B681846FFF7BC
:10102C003FFA1B4B9B681846FFF7C8FB194B1B6814
:10103C00012B26D1154B02221A604FF4FA7000F0E6
:10104C0099FB1EE00120FFF783FD114B5B681846EE
:10105C00FFF726FA0E4BDB681846FFF7AFFB0D4B7C
:10106C001B68012B0FD10A4B5B68013B084A53608C
:10107C00074BDB68013B064AD360044B00221A6025
:10108C0001E000BF00E000BF00BF80BD9400002065
:10109C00A8000020C000002080B500AF0F4B1B68DB
:1010AC00063B032B16D801A252F823F0C9100008F6
:1010BC00CF100008D5100008DB100008FFF792FFD6
:1010CC0009E0FFF735FF06E0FFF7D8FE03E0FFF776
:1010DC007BFE00E000BF00BF80BD00BF48000020C9
:1010EC0080B500AF564B1B68063B042B00F29C806E
:1010FC0001A252F823F000BF45110008811100082D
:10110C00BD110008F9110008191100084C4B0622FA
:10111C001A604C4B1B684FF47A7202FB03F31846AF
:10112C0000F090FB484B1B684FF47A7202FB03F300
:10113C00184600F039FB80E0FFF7AEFFFFF720F90F
:10114C00424B1B68012B71D13D4B07221A603D4B62
:10115C001B684FF47A7202FB03F3184600F072FB23
:10116C003B4B1B684FF47A7202FB03F3184600F0FA
:10117C001BFB5BE0FFF790FFFFF726F9334B1B6877
:10118C00012B55D12E4B08221A602E4B1B684FF4A5
:10119C007A7202FB03F3184600F054FB2A4B1B68CF
:1011AC004FF47A7202FB03F3184600F0FDFA3FE0AD
:1011BC00FFF772FFFFF72CF9244B1B68012B39D179
:1011CC001F4B09221A601F4B1B684FF47A7202FBEB
:1011DC0003F3184600F036FB1D4B1B684FF47A7274
:1011EC0002FB03F3184600F0DFFA23E0FFF754FF8D
:1011FC00FFF732F9154B1B68012B1DD1104B062242
:10120C001A60104B1B684FF47A7202FB03F31846FA
:10121C0000F018FB0C4B1B684FF47A7202FB03F3C3
:10122C00184600F0C1FA07E000BF06E000BF04E07A
:10123C0000BF02E000BF00E000BF00BF80BD00BFE8
:10124C00480000205000002058000020C80000205A
:10125C005400002080B582B000AF7860354B1B681D
:10126C00022B30D0022B5BDC002B02D0012B07D0E1
:10127C0056E0304B01221A60FA2000F0C9FA54E013
:10128C000020FFF765FC2C4B1B682C4A82FB0312D9
:10129C009210DB17D31A1846FFF702F97B68274A1E
:1012AC0082FB03129210DB17D31A1846FFF786FA4B
:1012BC00234B1B68012B35D1FA2000F0A9FA1D4BEA
:1012CC0002221A602EE00120FFF742FC1A4B1A682A
:1012DC001A4B83FB02139910D317C91A0B469B00A8
:1012EC000B445B00D11A0846FFF7DAF87A68134B07
:1012FC0083FB02139910D317C91A0B469B000B449E
:10130C005B00D11A0846FFF759FA0D4B1B68012BED
:10131C000AD1FA2000F07CFA064B01221A6003E095
:10132C0000BF02E000BF00E000BF00BF0837BD46B1
:10133C0080BD00BF980000204C00002067666666E8
:10134C00D800002080B500AF7C4B1B68012B03D16B
:10135C004FF47A7000F090FA794B1B68013B032B29
:10136C0000F2E08001A252F823F000BF89130008BC
:10137C00AB1300081F14000891140008FFF7B0FE0F
:10138C000020FEF7DDFE0346012B40F0CD806C4BB8
:10139C0002221A604FF4FA7000F020FAC4E0694B94
:1013AC001B681846FFF756FF674B1B68012B05D1CE
:1013BC00FEF780FF4FF4FA7000F010FA0020FEF7F1
:1013CC00BFFE0346012B06D15D4B03221A604FF47E
:1013DC00FA7000F003FA0120FEF7B2FE0346012B6F
:1013EC000BD1584B1B680133564A1360554B1B6885
:1013FC00632B02DD534B01221A600220FEF7A0FE84
:10140C000346012B40F092804E4B1B684F4A1360F1
:10141C008CE04F4B1B681846FFF71CFF4A4B1B68B0
:10142C00012B05D1FEF78AFF4FF4FA7000F0D6F9C4
:10143C000020FEF785FE0346012B06D1404B04220B
:10144C001A604FF4FA7000F0E3F90120FEF778FE11
:10145C000346012B0BD13E4B1B6801333C4A1360F6
:10146C003B4B1B68632B02DD394B01221A600220B7
:10147C00FEF766FE0346012B5AD1354B1B68354AE5
:10148C00136055E0344B1B681846FFF7E3FE2E4BF8
:10149C001B68012B05D1FEF72FFF4FF4FA7000F0FB
:1014AC009DF90020FEF74CFE0346012B02D1244B84
:1014BC0001221A600120FEF743FE0346012B0BD1DB
:1014CC00254B1B680133244A1360234B1B68632B89
:1014DC0002DD214B01221A600220FEF731FE034689
:1014EC00012B27D11C4B1B681C4A13601A4B1A6822
:1014FC00174B1B681344134A1360124B1B68134A97
:10150C001360134B1B68134A1360134B1B68134A6D
:10151C001360FFF761FB124B0A221A60114B002279
:10152C001A6007E000BF06E000BF04E000BF02E065
:10153C0000BF00E000BF00BF80BD00BF080100205D
:10154C004C0000209C000020D00000205000002007
:10155C00A000002054000020A4000020580000200F
:10156C00480000209400002080B500AF00F020FB64
:10157C0000F00EF800F094F800F046F8034801F083
:10158C0075FAFFF729FBFFF7DDFEFCE710010020E1
:10159C0080B590B000AF07F118032822002118463F
:1015AC0001F014FE3B1D00221A605A609A60DA604A
:1015BC001A610223BB610123BB621023FB6200236F
:1015CC007B6307F11803184600F024FE0346002B3A
:1015DC0001D000F0C9F80F237B600023BB6000230F
:1015EC00FB6000233B6100237B613B1D00211846FF
:1015FC0001F090F80346002B01D000F0B5F800BFC5
:10160C004037BD4680BD000080B586B000AF07F105
:10161C00080300221A605A609A60DA603B46002286
:10162C001A605A601D4B4FF080421A601B4B41F6FA
:10163C003F725A60194B00229A60184B0922DA60EB
:10164C00164B00221A61154B00229A61134801F0C7
:10165C00BDF90346002B01D000F086F84FF48053FF
:10166C00BB6007F1080319460C4801F03BFB03462D
:10167C00002B01D000F078F800233B6000237B6046
:10168C003B461946054801F013FD0346002B01D0DB
:10169C0000F06AF800BF1837BD4680BD100100206D
:1016AC0080B586B000AF07F1080300221A605A60BB
:1016BC009A60DA60234B9B69224A43F004039361DE
:1016CC00204B9B6903F004037B607B681D4B9B697B
:1016DC001C4A43F0080393611A4B9B6903F00803FF
:1016EC003B603B6840F6DE73BB600123FB6000236C
:1016FC003B6102237B6107F108031946124800F095
:10170C00C7FB4FF46043BB600023FB6001233B61CC
:10171C0007F1080319460C4800F0BAFB43F6FF73B7
:10172C00BB600123FB6000233B6102237B6107F15B
:10173C0008031946054800F0ABFB00BF1837BD463F
:10174C0080BD00BF0010024000080140000C0140A9
:10175C0080B582B000AF786000F0A8F8FEF71AFDF3
:10176C0000BF0837BD4680BD80B400AF72B600BF65
:10177C00FEE7000080B483B000AF7860074B002216
:10178C001A60074B1B687A6892FBF3F3054A1360E7
:10179C0000BF0C37BD4680BC704700BFC0000020A6
:1017AC005C000020C400002080B483B000AF7860DF
:1017BC00074B00221A60074B1B687A6892FBF3F305
:1017CC00054A136000BF0C37BD4680BC704700BF94
:1017DC00C80000205C000020CC00002080B483B046
:1017EC0000AF7860074B00221A60074B1B687A68C1
:1017FC0092FBF3F3054A136000BF0C37BD4680BC67
:10180C00704700BFD00000205C000020D4000020F6
:10181C0080B483B000AF7860074B00221A60074B8E
:10182C001B687A6892FBF3F3054A136000BF0C3710
:10183C00BD4680BC704700BFD80000205C00002073
:10184C00DC00002080B483B000AF7860074B00222E
:10185C001A60074B1B687A6892FBF3F3054A136016
:10186C0000BF0C37BD4680BC704700BFE8000020AD
:10187C005C000020EC00002080B483B000AF7860E6
:10188C00074B00221A60074B1B687A6892FBF3F334
:10189C00054A136000BF0C37BD4680BC704700BFC3
:1018AC00080100205C0000200C01002080B400AF77
:1018BC00514B1B68002B0BDD4F4B1B68013B4E4AF9
:1018CC0013604D4B1B68002B02DC4C4B01221A6041
:1018DC004B4B1B68002B0BDD494B1B68013B484AEB
:1018EC001360474B1B68002B02DC464B01221A602D
:1018FC00454B1B68002B0BDD434B1B68013B424ADD
:10190C001360414B1B68002B02DC404B01221A6018
:10191C003F4B1B68002B0BDD3D4B1B68013B3C4ACE
:10192C0013603B4B1B68002B02DC3A4B01221A6004
:10193C00394B1B68002B0BDD374B1B68013B364AC0
:10194C001360354B1B68002B02DC344B01221A60F0
:10195C00334B1B68002B0BDD314B1B68013B304AB2
:10196C0013602F4B1B68002B02DC2E4B01221A60DC
:10197C002D4B1B68002B0BDD2B4B1B68013B2A4AA4
:10198C001360294B1B68002B02DC284B01221A60C8
:10199C00274B1B68002B0BDD254B1B68013B244A96
:1019AC001360234B1B68002B02DC224B01221A60B4
:1019BC00214B1B68002B0BDD1F4B1B68013B1E4A88
:1019CC0013601D4B1B68002B02DC1C4B01221A60A0
:1019DC001B4B1B68002B0BDD194B1B68013B184A7A
:1019EC001360174B1B68002B02DC164B01221A608C
:1019FC0000BFBD4680BC7047C4000020C000002062
:101A0C00CC000020C8000020D4000020D000002012
:101A1C00DC000020D8000020E4000020E0000020C2
:101A2C00EC000020E8000020F4000020F000002072
:101A3C00FC000020F8000020040100200001002020
:101A4C000C0100200801002080B485B000AF154BBC
:101A5C009B69144A43F001039361124B9B6903F099
:101A6C000103BB60BB680F4BDB690E4A43F080532C
:101A7C00D3610C4BDB6903F080537B607B680A4BB2
:101A8C005B68FB60FB6823F0E063FB60FB6843F082
:101A9C008063FB60044AFB68536000BF1437BD468B
:101AAC0080BC7047001002400000014080B584B03B
:101ABC0000AF78607B681B68B3F1804F13D10C4B7F
:101ACC00DB690B4A43F00103D361094BDB6903F07B
:101ADC000103FB60FB68002200211C2000F0A1F92F
:101AEC001C2000F0BAF900BF1037BD4680BD00BF06
:101AFC000010024080B400AFFEE780B400AFFEE7F8
:101B0C0080B400AFFEE780B400AFFEE780B400AF56
:101B1C00FEE780B400AF00BFBD4680BC704780B408
:101B2C0000AF00BFBD4680BC704780B400AF00BFA3
:101B3C00BD4680BC704780B500AF00F07FF800BF99
:101B4C0080BD000080B500AF024800F0DBFF00BF95
:101B5C0080BD00BF1001002080B400AF00BFBD46A7
:101B6C0080BC7047FFF7F8FF0B480C490C4A002368
:101B7C0002E0D458C4500433C4188C42F9D3094A37
:101B8C00094C002301E013600432A242FBD301F0A4
:101B9C00F9FAFFF7E9FC7047000000206C00002008
:101BAC002C3200086C0000205C010020FEE70000D5
:101BBC0080B500AF084B1B68074A43F01003136055
:101BCC00032000F023F90F2000F008F8FFF73CFF8A
:101BDC000023184680BD00BF0020024080B582B0B3
:101BEC0000AF7860124B1A68124B1B7819464FF4F1
:101BFC007A73B3FBF1F3B2FBF3F3184600F03BF945
:101C0C000346002B01D001230EE07B680F2B0AD872
:101C1C00002279684FF0FF3000F003F9064A7B6828
:101C2C001360002300E0012318460837BD4680BD31
:101C3C0060000020680000206400002080B400AF29
:101C4C00054B1B781A46054B1B681344034A13605B
:101C5C0000BFBD4680BC70476800002058010020C2
:101C6C0080B400AF024B1B681846BD4680BC704761
:101C7C005801002080B485B000AF78607B6803F019
:101C8C000703FB600C4BDB68BB60BA684FF6FF03C5
:101C9C001340BB60FB681A02BB68134343F0BF637D
:101CAC0043F40033BB60044ABB68D36000BF1437F5
:101CBC00BD4680BC704700BF00ED00E080B400AFB3
:101CCC00044BDB681B0A03F007031846BD4680BCB7
:101CDC00704700BF00ED00E080B483B000AF034656
:101CEC00FB7197F90730002B0BDBFB7903F01F021C
:101CFC00064997F907305B09012000FA02F241F816
:101D0C00232000BF0C37BD4680BC704700E100E0CB
:101D1C0080B483B000AF03463960FB7197F907308C
:101D2C00002B0ADB3B68DAB20C4997F90730120139
:101D3C00D2B20B4483F800230AE03B68DAB20849BC
:101D4C00FB7903F00F03043B1201D2B20B441A7659
:101D5C0000BF0C37BD4680BC704700BF00E100E0FF
:101D6C0000ED00E080B489B000AFF860B9607A6033
:101D7C00FB6803F00703FB61FB69C3F10703042B4A
:101D8C0028BF0423BB61FB690433062B02D9FB6912
:101D9C00033B00E000237B614FF0FF32BB6902FA8A
:101DAC0003F3DA43BB681A407B699A404FF0FF316A
:101DBC007B6901FA03F3D9437B680B401343184644
:101DCC002437BD4680BC704780B582B000AF7860C8
:101DDC007B68013BB3F1807F01D301230FE00A4AFA
:101DEC007B68013B53600F214FF0FF30FFF790FFF2
:101DFC00054B00229A60044B07221A6000231846F8
:101E0C000837BD4680BD00BF10E000E080B582B051
:101E1C0000AF78607868FFF72DFF00BF0837BD462C
:101E2C0080BD80B586B000AF0346B9607A60FB73A5
:101E3C0000237B61FFF742FF78617A68B9687869A3
:101E4C00FFF790FF024697F90F3011461846FFF73F
:101E5C005FFF00BF1837BD4680BD80B582B000AFB4
:101E6C000346FB7197F907301846FFF735FF00BFA3
:101E7C000837BD4680BD80B582B000AF7860786809
:101E8C00FFF7A2FF034618460837BD4680BD000089
:101E9C0080B48BB000AF7860396000237B62002384
:101EAC003B6248E101227B6A02FA03F3FB613B6867
:101EBC001B68FA691340BB61BA69FB699A4240F02E
:101ECC0037813B685B68A34A93425ED0A14A934238
:101EDC0075D8A14A934258D09F4A93426FD89F4AD3
:101EEC00934252D09D4A934269D89D4A93424CD01A
:101EFC009B4A934263D89B4A934246D0994A934259
:101F0C005DD8122B2AD8122B59D801A252F823F0E3
:101F1C00971F0008711F0008831F0008C51F0008C9
:101F2C00CB1F0008CB1F0008CB1F0008CB1F0008DD
:101F3C00CB1F0008CB1F0008CB1F0008CB1F0008CD
:101F4C00CB1F0008CB1F0008CB1F0008CB1F0008BD
:101F5C00CB1F0008791F00088D1F0008824A93428E
:101F6C0013D02CE03B68DB683B6229E03B68DB6804
:101F7C0004333B6224E03B68DB6808333B621FE0C0
:101F8C003B68DB680C333B621AE03B689B68002BB8
:101F9C0002D104233B6213E03B689B68012B05D103
:101FAC0008233B627B68FA691A6109E008233B62EB
:101FBC007B68FA695A6103E000233B6200E000BFD2
:101FCC00BB69FF2B01D87B6801E07B6804337B6124
:101FDC00BB69FF2B02D87B6A9B0002E07B6A083B43
:101FEC009B003B617B691A680F213B6901FA03F383
:101FFC00DB431A40396A3B6901FA03F31A437B69E4
:10200C001A603B685B6803F08053002B00F09080F3
:10201C00564B9B69554A43F001039361534B9B69A3
:10202C0003F00103BB60BB68514A7B6A9B08023317
:10203C0052F82330FB607B6A03F003039B000F22F2
:10204C0002FA03F3DB43FA681340FB607B68494AEE
:10205C0093420DD07B68484A934207D07B68474A2D
:10206C00934201D1022304E0032302E0012300E0A8
:10207C0000237A6A02F0030292009340FA68134339
:10208C00FB603B497B6A9B080233FA6841F82320CA
:10209C003B685B6803F48013002B06D0384B9A68BE
:1020AC003749BB6913438B6006E0354B9A68BB69B3
:1020BC00DB43334913408B603B685B6803F40013CC
:1020CC00002B06D02E4BDA682D49BB691343CB602D
:1020DC0006E02B4BDA68BB69DB4329491340CB6024
:1020EC003B685B6803F40033002B06D0244B5A6822
:1020FC002349BB6913434B6006E0214B5A68BB690B
:10210C00DB431F4913404B603B685B6803F480332F
:10211C00002B06D01A4B1A681949BB6913430B6084
:10212C0006E0174B1A68BB69DB43154913400B607B
:10213C007B6A01337B623B681A687B6A22FA03F381
:10214C00002B7FF4AFAE00BF00BF2C37BD4680BC68
:10215C00704700BF00003210000031100000221048
:10216C00000021100000121000001110001002409D
:10217C000000014000080140000C0140001001402B
:10218C000004014080B485B000AF78600B467B80C2
:10219C007B689A687B881340002B02D00123FB7369
:1021AC0001E00023FB73FB7B18461437BD4680BC53
:1021BC00704780B483B000AF78600B467B801346C9
:1021CC007B707B78002B03D07A887B681A6103E0E4
:1021DC007B881A047B681A6100BF0C37BD4680BC33
:1021EC00704780B485B000AF78600B467B807B680D
:1021FC00DB68FB607A88FB6813401A04FB68D943E0
:10220C007B880B401A437B681A6100BF1437BD46AC
:10221C0080BC704780B586B000AF78607B68002BBF
:10222C0001D101236CE27B681B6803F00103002BD6
:10223C0000F08780924B5B6803F00C03042B0CD0EE
:10224C008F4B5B6803F00C03082B12D18C4B5B6833
:10225C0003F48033B3F5803F0BD1894B1B6803F437
:10226C000033002B6CD07B685B68002B68D101239A
:10227C0046E27B685B68B3F5803F06D1804B1B68F8
:10228C007F4A43F4803313602EE07B685B68002B3D
:10229C000CD17B4B1B687A4A23F480331360784B48
:1022AC001B68774A23F4802313601DE07B685B680E
:1022BC00B3F5A02F0CD1724B1B68714A43F48023E9
:1022CC0013606F4B1B686E4A43F4803313600BE052
:1022DC006B4B1B686A4A23F480331360684B1B6892
:1022EC00674A23F4802313607B685B68002B13D050
:1022FC00FFF7B6FC386108E0FFF7B2FC02463B6919
:10230C00D31A642B01D90323FAE15D4B1B6803F448
:10231C000033002BF0D014E0FFF7A2FC386108E08A
:10232C00FFF79EFC02463B69D31A642B01D90323A9
:10233C00E6E1534B1B6803F40033002BF0D100E0B3
:10234C0000BF7B681B6803F00203002B63D04C4B6F
:10235C005B6803F00C03002B0BD0494B5B6803F05C
:10236C000C03082B1CD1464B5B6803F48033002B09
:10237C0016D1434B1B6803F00203002B05D07B687E
:10238C001B69012B01D00123BAE13D4B1B6823F0E3
:10239C00F8027B685B69DB00394913430B603AE058
:1023AC007B681B69002B20D0364B01221A60FFF78B
:1023BC0057FC386108E0FFF753FC02463B69D31A1F
:1023CC00022B01D903239BE12D4B1B6803F0020365
:1023DC00002BF0D02A4B1B6823F0F8027B685B695A
:1023EC00DB00274913430B6015E0264B00221A60D3
:1023FC00FFF736FC386108E0FFF732FC02463B6918
:10240C00D31A022B01D903237AE11D4B1B6803F06D
:10241C000203002BF0D17B681B6803F00803002B30
:10242C003AD07B689B69002B19D0174B01221A609C
:10243C00FFF716FC386108E0FFF712FC02463B6917
:10244C00D31A022B01D903235AE10D4B5B6A03F01B
:10245C000203002BF0D0012000F09AFA1CE00A4B8A
:10246C0000221A60FFF7FCFB38610FE0FFF7F8FB66
:10247C0002463B69D31A022B08D9032340E100BF63
:10248C000010024000004242800442429E4B5B6AB4
:10249C0003F00203002BE9D17B681B6803F00403F3
:1024AC00002B00F0A6800023FB75974BDB6903F033
:1024BC008053002B0DD1944BDB69934A43F080532E
:1024CC00D361914BDB6903F08053BB60BB68012384
:1024DC00FB758E4B1B6803F48073002B18D18B4B50
:1024EC001B688A4A43F480731360FFF7B9FB3861A9
:1024FC0008E0FFF7B5FB02463B69D31A642B01D900
:10250C000323FDE0814B1B6803F48073002BF0D098
:10251C007B68DB68012B06D17B4B1B6A7A4A43F044
:10252C00010313622DE07B68DB68002B0CD1764B2A
:10253C001B6A754A23F001031362734B1B6A724AC0
:10254C0023F0040313621CE07B68DB68052B0CD1C1
:10255C006D4B1B6A6C4A43F0040313626A4B1B6A93
:10256C00694A43F0010313620BE0674B1B6A664A2E
:10257C0023F001031362644B1B6A634A23F00403C8
:10258C0013627B68DB68002B15D0FFF769FB3861A1
:10259C000AE0FFF765FB02463B69D31A41F2883229
:1025AC00934201D90323ABE0574B1B6A03F00203A0
:1025BC00002BEED014E0FFF753FB38610AE0FFF775
:1025CC004FFB02463B69D31A41F28832934201D940
:1025DC00032395E04C4B1B6A03F00203002BEED156
:1025EC00FB7D012B05D1484BDB69474A23F0805317
:1025FC00D3617B68DB69002B00F08180424B5B6808
:10260C0003F00C03082B61D07B68DB69022B46D1ED
:10261C003F4B00221A60FFF723FB386108E0FFF7FD
:10262C001FFB02463B69D31A022B01D9032367E037
:10263C00354B1B6803F00073002BF0D17B681B6AD1
:10264C00B3F5803F08D1304B5B6823F400327B68D4
:10265C009B682D4913434B602B4B5B6823F474121E
:10266C007B68196A7B685B6A0B43274913434B6091
:10267C00274B01221A60FFF7F3FA386108E0FFF7E5
:10268C00EFFA02463B69D31A022B01D9032337E038
:10269C001D4B1B6803F00073002BF0D02FE01C4B7C
:1026AC0000221A60FFF7DCFA386108E0FFF7D8FA6D
:1026BC0002463B69D31A022B01D9032320E0124BAB
:1026CC001B6803F00073002BF0D118E07B68DB690A
:1026DC00012B01D1012313E00B4B5B68FB60FB6802
:1026EC0003F480327B681B6A9A4206D1FB6803F4C0
:1026FC0070127B685B6A9A4201D0012300E00023D0
:10270C0018461837BD4680BD0010024000700040CE
:10271C006000424280B584B000AF786039607B685D
:10272C00002B01D10123D0E06A4B1B6803F0070397
:10273C003A689A4210D9674B1B6823F00702654927
:10274C003B6813430B60634B1B6803F007033A6849
:10275C009A4201D00123B8E07B681B6803F00203A6
:10276C00002B20D07B681B6803F00403002B05D0E2
:10277C00594B5B68584A43F4E06353607B681B68B1
:10278C0003F00803002B05D0534B5B68524A43F40B
:10279C0060535360504B5B6823F0F0027B689B687E
:1027AC004D4913434B607B681B6803F00103002BFE
:1027BC0040D07B685B68012B07D1474B1B6803F447
:1027CC000033002B15D101237FE07B685B68022B63
:1027DC0007D1414B1B6803F00073002B09D1012377
:1027EC0073E03D4B1B6803F00203002B01D1012366
:1027FC006BE0394B5B6823F003027B685B683649FE
:10280C0013434B60FFF72CFAF8600AE0FFF728FA45
:10281C000246FB68D31A41F28832934201D9032352
:10282C0053E02D4B5B6803F00C027B685B689B00EC
:10283C009A42EBD1274B1B6803F007033A689A4284
:10284C0010D2244B1B6823F0070222493B68134328
:10285C000B60204B1B6803F007033A689A4201D0C7
:10286C00012332E07B681B6803F00403002B08D0C3
:10287C00194B5B6823F4E0627B68DB6816491343F1
:10288C004B607B681B6803F00803002B09D0124BCC
:10289C005B6823F460527B681B69DB000E491343B1
:1028AC004B6000F021F802460B4B5B681B0903F0F0
:1028BC000F030A49CB5C22FA03F3094A1360094B54
:1028CC001B681846FFF78AF9002318461037BD46D7
:1028DC0080BD00BF00200240001002400032000802
:1028EC00600000206400002080B487B000AF00239B
:1028FC00FB600023BB6000237B6100237B60002313
:10290C003B611E4B5B68FB60FB6803F00C03042B04
:10291C0002D0082B03D027E0194B3B6127E0FB6862
:10292C009B0C03F00F03174AD35C7B60FB6803F42A
:10293C008033002B10D0114B5B685B0C03F0010350
:10294C00114AD35CBB607B680D4A02FB03F2BB6887
:10295C00B2FBF3F37B6104E07B680C4A02FB03F3EC
:10296C007B617B693B6102E0054B3B6100BF3B69CE
:10297C0018461C37BD4680BC704700BF0010024093
:10298C0000127A00103200082032000800093D00C5
:10299C0080B485B000AF78600A4B1B680A4AA2FB72
:1029AC0003235B0A7A6802FB03F3FB6000BFFB683E
:1029BC005A1EFA60002BF9D100BF00BF1437BD4678
:1029CC0080BC704760000020D34D621080B582B08F
:1029DC0000AF78607B68002B01D1012341E07B685C
:1029EC0093F83D30DBB2002B06D17B68002283F8D4
:1029FC003C207868FFF75AF87B68022283F83D2068
:102A0C007B681A687B6804331946104600F056FA46
:102A1C007B68012283F846207B68012283F83E20E4
:102A2C007B68012283F83F207B68012283F84020D9
:102A3C007B68012283F841207B68012283F84220C5
:102A4C007B68012283F843207B68012283F84420B1
:102A5C007B68012283F845207B68012283F83D20A6
:102A6C00002318460837BD4680BD000080B485B0F1
:102A7C0000AF78607B6893F83D30DBB2012B01D05E
:102A8C00012335E07B68022283F83D207B681B68BC
:102A9C00DA687B681B6842F00102DA607B681B68AD
:102AAC00164A934209D07B681B68B3F1804F04D05F
:102ABC007B681B68124A934211D17B681B689B6828
:102ACC0003F00703FB60FB68062B10D07B681B68C8
:102ADC001A687B681B6842F001021A6007E07B6889
:102AEC001B681A687B681B6842F001021A6000239D
:102AFC0018461437BD4680BC704700BF002C0140FF
:102B0C000004004080B584B000AF78607B681B681F
:102B1C00DB68FB607B681B681B69BB60BB6803F0F0
:102B2C000203002B20D0FB6803F00203002B1BD008
:102B3C007B681B686FF002021A617B6801221A77AE
:102B4C007B681B689B6903F00303002B03D0786838
:102B5C0000F098F905E0786800F08BF9786800F0DF
:102B6C009AF97B6800221A77BB6803F00403002BE8
:102B7C0020D0FB6803F00403002B1BD07B681B6880
:102B8C006FF004021A617B6802221A777B681B685B
:102B9C009B6903F44073002B03D0786800F072F942
:102BAC0005E0786800F065F9786800F074F97B68E6
:102BBC0000221A77BB6803F00803002B20D0FB68B7
:102BCC0003F00803002B1BD07B681B686FF0080216
:102BDC001A617B6804221A777B681B68DB6903F037
:102BEC000303002B03D0786800F04CF905E07868FB
:102BFC0000F03FF9786800F04EF97B6800221A77F4
:102C0C00BB6803F01003002B20D0FB6803F010030B
:102C1C00002B1BD07B681B686FF010021A617B685D
:102C2C0008221A777B681B68DB6903F44073002B5E
:102C3C0003D0786800F026F905E0786800F019F9FF
:102C4C00786800F028F97B6800221A77BB6803F0DB
:102C5C000103002B0CD0FB6803F00103002B07D001
:102C6C007B681B686FF001021A617868FEF770FDD3
:102C7C00BB6803F08003002B0CD0FB6803F08003CF
:102C8C00002B07D07B681B686FF080021A61786894
:102C9C0000F06FFABB6803F04003002B0CD0FB680C
:102CAC0003F04003002B07D07B681B686FF04002D9
:102CBC001A61786800F0F8F8BB6803F02003002B69
:102CCC000CD0FB6803F02003002B07D07B681B683B
:102CDC006FF020021A61786800F042FA00BF1037DA
:102CEC00BD4680BD80B584B000AF786039600023EC
:102CFC00FB737B6893F83C30012B01D10223B4E0C9
:102D0C007B68012283F83C207B68022283F83D20FB
:102D1C007B681B689B68BB60BB6823F07703BB6058
:102D2C00BB6823F47F43BB607B681B68BA689A60FE
:102D3C003B681B68B3F5005F3ED0B3F5005F00F253
:102D4C008780B3F5805F00F08680B3F5805F7FD815
:102D5C00702B1AD0702B7BD8602B50D0602B77D86F
:102D6C00502B3CD0502B73D8402B58D0402B6FD8C5
:102D7C00302B64D0302B6BD8202B60D0202B67D815
:102D8C00002B5CD0102B5AD062E07B6818683B6833
:102D9C0099683B685A683B68DB6800F06AF97B68A5
:102DAC001B689B68BB60BB6843F07703BB607B68A8
:102DBC001B68BA689A604FE07B6818683B68996832
:102DCC003B685A683B68DB6800F053F97B681B680A
:102DDC009A687B681B6842F480429A603CE07B688E
:102DEC0018683B6859683B68DB681A4600F0CAF8FB
:102DFC007B681B685021184600F021F92CE07B6899
:102E0C0018683B6859683B68DB681A4600F0E8F8BC
:102E1C007B681B686021184600F011F91CE07B6888
:102E2C0018683B6859683B68DB681A4600F0AAF8DA
:102E3C007B681B684021184600F001F90CE07B68A8
:102E4C001A683B681B681946104600F0F8F803E056
:102E5C000123FB7300E000BF7B68012283F83D2057
:102E6C007B68002283F83C20FB7B18461037BD465C
:102E7C0080BD80B483B000AF786000BF0C37BD4616
:102E8C0080BC704780B483B000AF786000BF0C3753
:102E9C00BD4680BC704780B483B000AF786000BF83
:102EAC000C37BD4680BC704780B483B000AF7860EF
:102EBC0000BF0C37BD4680BC7047000080B485B0A5
:102ECC0000AF786039607B681B68FB607B682B4ABD
:102EDC00934207D07B68B3F1804F03D07B68284ABC
:102EEC00934208D1FB6823F07003FB603B685B687E
:102EFC00FA681343FB607B68204A934207D07B68D7
:102F0C00B3F1804F03D07B681D4A934208D1FB6814
:102F1C0023F44073FB603B68DB68FA681343FB6087
:102F2C00FB6823F080023B685B691343FB607B68A2
:102F3C00FA681A603B689A687B68DA623B681A68C0
:102F4C007B689A627B680D4A934203D13B681A698D
:102F5C007B681A637B6801225A617B681B6903F0EA
:102F6C000103002B05D07B681B6923F001027B68F1
:102F7C001A6100BF1437BD4680BC7047002C01405D
:102F8C000004004080B487B000AFF860B9607A608C
:102F9C00FB681B6A7B61FB681B6A23F00102FB6800
:102FAC001A62FB689B693B613B6923F0F0033B6150
:102FBC007B681B013A6913433B617B6923F00A036D
:102FCC007B617A69BB6813437B61FB683A699A61E0
:102FDC00FB687A691A6200BF1C37BD4680BC70471B
:102FEC0080B487B000AFF860B9607A60FB681B6A88
:102FFC007B61FB681B6A23F01002FB681A62FB689A
:10300C009B693B613B6923F470433B617B681B0309
:10301C003A6913433B617B6923F0A0037B61BB6876
:10302C001B017A6913437B61FB683A699A61FB68FF
:10303C007A691A6200BF1C37BD4680BC704780B4E9
:10304C0085B000AF786039607B689B68FB60FB687B
:10305C0023F07003FB603A68FB68134343F00703EB
:10306C00FB607B68FA689A6000BF1437BD4680BC71
:10307C00704780B487B000AFF860B9607A603B608D
:10308C00FB689B687B617B6923F47F437B613B68B6
:10309C001A027B681A43BB6813437A6913437B613A
:1030AC00FB687A699A6000BF1C37BD4680BC7047CC
:1030BC0080B485B000AF786039607B6893F83C30A1
:1030CC00012B01D1022341E07B68012283F83C20D3
:1030DC007B68022283F83D207B681B685B68FB6081
:1030EC007B681B689B68BB60FB6823F07003FB600C
:1030FC003B681B68FA681343FB607B681B68FA68C3
:10310C005A607B681B68144A934209D07B681B6821
:10311C00B3F1804F04D07B681B68104A93420CD1EA
:10312C00BB6823F08003BB603B685B68BA681343E1
:10313C00BB607B681B68BA689A607B68012283F865
:10314C003D207B68002283F83C200023184614376E
:10315C00BD4680BC704700BF002C014000040040FD
:10316C0080B483B000AF786000BF0C37BD4680BC24
:10317C00704780B483B000AF786000BF0C37BD4699
:10318C0080BC704770B500260C4D0D4C641BA41010
:10319C00A64209D100F022F800260A4D0A4C641B05
:1031AC00A410A64205D170BD55F8043B98470136D2
:1031BC00EEE755F8043B98470136F2E72432000855
:1031CC002432000824320008283200080346024446
:1031DC00934200D1704703F8011BF9E7F8B500BF23
:1031EC00F8BC08BC9E467047F8B500BFF8BC08BCDC
:0431FC009E46704734
:103200000000000000000000010203040607080996
:1032100002030405060708090A0B0C0D0E0F101017
:0432200001020000A7
:04322400310100086C
:043228000D0100088C
:10322C00010000000100000001000000010000008E
:10323C00010000000100000001000000010000007E
:10324C00010000000100000001000000010000006E
:10325C00002000000040000000800000F40100008D
:10326C00F4010000F40100000A000000010000005D
:10327C000500000002000000030000000A0000002E
:0C328C0000127A00100000000100000099
:0400000508001B7163
:00000001FF
